{
  "contractName": "authenticatedPoll",
  "abi": [
    {
      "constant": true,
      "inputs": [],
      "name": "options",
      "outputs": [
        {
          "name": "",
          "type": "uint8"
        }
      ],
      "payable": false,
      "stateMutability": "view",
      "type": "function"
    },
    {
      "constant": true,
      "inputs": [
        {
          "name": "",
          "type": "uint256"
        }
      ],
      "name": "votersVoted",
      "outputs": [
        {
          "name": "",
          "type": "address"
        }
      ],
      "payable": false,
      "stateMutability": "view",
      "type": "function"
    },
    {
      "constant": true,
      "inputs": [
        {
          "name": "",
          "type": "uint8"
        }
      ],
      "name": "result",
      "outputs": [
        {
          "name": "",
          "type": "uint8"
        }
      ],
      "payable": false,
      "stateMutability": "view",
      "type": "function"
    },
    {
      "constant": true,
      "inputs": [],
      "name": "regex",
      "outputs": [
        {
          "name": "",
          "type": "string"
        }
      ],
      "payable": false,
      "stateMutability": "view",
      "type": "function"
    },
    {
      "constant": true,
      "inputs": [],
      "name": "totalVoters",
      "outputs": [
        {
          "name": "",
          "type": "uint8"
        }
      ],
      "payable": false,
      "stateMutability": "view",
      "type": "function"
    },
    {
      "constant": true,
      "inputs": [
        {
          "name": "",
          "type": "address"
        }
      ],
      "name": "voted",
      "outputs": [
        {
          "name": "",
          "type": "uint8"
        }
      ],
      "payable": false,
      "stateMutability": "view",
      "type": "function"
    },
    {
      "constant": true,
      "inputs": [],
      "name": "dbAddr",
      "outputs": [
        {
          "name": "",
          "type": "address"
        }
      ],
      "payable": false,
      "stateMutability": "view",
      "type": "function"
    },
    {
      "inputs": [
        {
          "name": "_regex",
          "type": "string"
        },
        {
          "name": "_options",
          "type": "uint8"
        },
        {
          "name": "database",
          "type": "address"
        }
      ],
      "payable": false,
      "stateMutability": "nonpayable",
      "type": "constructor"
    },
    {
      "anonymous": false,
      "inputs": [
        {
          "indexed": false,
          "name": "_choice",
          "type": "uint8"
        },
        {
          "indexed": false,
          "name": "sender",
          "type": "address"
        }
      ],
      "name": "addVote",
      "type": "event"
    },
    {
      "constant": false,
      "inputs": [
        {
          "name": "_choice",
          "type": "uint8"
        }
      ],
      "name": "vote",
      "outputs": [],
      "payable": false,
      "stateMutability": "nonpayable",
      "type": "function"
    },
    {
      "constant": true,
      "inputs": [
        {
          "name": "addr",
          "type": "address"
        }
      ],
      "name": "getData",
      "outputs": [
        {
          "name": "",
          "type": "string"
        }
      ],
      "payable": false,
      "stateMutability": "view",
      "type": "function"
    }
  ],
  "bytecode": "0x608060405234801561001057600080fd5b50604051610c36380380610c368339810180604052606081101561003357600080fd5b81019080805164010000000081111561004b57600080fd5b8281019050602081018481111561006157600080fd5b815185600182028301116401000000008211171561007e57600080fd5b5050929190602001805190602001909291908051906020019092919050505082600090805190602001906100b3929190610179565b5081600160006101000a81548160ff021916908360ff160217905550806001806101000a81548173ffffffffffffffffffffffffffffffffffffffff021916908373ffffffffffffffffffffffffffffffffffffffff1602179055506001809054906101000a900473ffffffffffffffffffffffffffffffffffffffff16600260006101000a81548173ffffffffffffffffffffffffffffffffffffffff021916908373ffffffffffffffffffffffffffffffffffffffff16021790555050505061021e565b828054600181600116156101000203166002900490600052602060002090601f016020900481019282601f106101ba57805160ff19168380011785556101e8565b828001600101855582156101e8579182015b828111156101e75782518255916020019190600101906101cc565b5b5090506101f591906101f9565b5090565b61021b91905b808211156102175760008160009055506001016101ff565b5090565b90565b610a098061022d6000396000f3fe608060405234801561001057600080fd5b50600436106100935760003560e01c806355e79d291161006657806355e79d29146102325780635f5300ff146102b5578063aec2ccae146102d9578063b3f98adc14610337578063b4c3999f1461036857610093565b80631069143a14610098578063286b8f48146100bc57806338266b221461012a57806342f324fd146101e7575b600080fd5b6100a06103b2565b604051808260ff1660ff16815260200191505060405180910390f35b6100e8600480360360208110156100d257600080fd5b81019080803590602001909291905050506103c5565b604051808273ffffffffffffffffffffffffffffffffffffffff1673ffffffffffffffffffffffffffffffffffffffff16815260200191505060405180910390f35b61016c6004803603602081101561014057600080fd5b81019080803573ffffffffffffffffffffffffffffffffffffffff169060200190929190505050610401565b6040518080602001828103825283818151815260200191508051906020019080838360005b838110156101ac578082015181840152602081019050610191565b50505050905090810190601f1680156101d95780820380516001836020036101000a031916815260200191505b509250505060405180910390f35b610216600480360360208110156101fd57600080fd5b81019080803560ff16906020019092919050505061053a565b604051808260ff1660ff16815260200191505060405180910390f35b61023a61055a565b6040518080602001828103825283818151815260200191508051906020019080838360005b8381101561027a57808201518184015260208101905061025f565b50505050905090810190601f1680156102a75780820380516001836020036101000a031916815260200191505b509250505060405180910390f35b6102bd6105f8565b604051808260ff1660ff16815260200191505060405180910390f35b61031b600480360360208110156102ef57600080fd5b81019080803573ffffffffffffffffffffffffffffffffffffffff16906020019092919050505061060b565b604051808260ff1660ff16815260200191505060405180910390f35b6103666004803603602081101561034d57600080fd5b81019080803560ff16906020019092919050505061062b565b005b6103706109b8565b604051808273ffffffffffffffffffffffffffffffffffffffff1673ffffffffffffffffffffffffffffffffffffffff16815260200191505060405180910390f35b600160009054906101000a900460ff1681565b600581815481106103d257fe5b906000526020600020016000915054906101000a900473ffffffffffffffffffffffffffffffffffffffff1681565b6060600260009054906101000a900473ffffffffffffffffffffffffffffffffffffffff1673ffffffffffffffffffffffffffffffffffffffff166330289c61836040518263ffffffff1660e01b8152600401808273ffffffffffffffffffffffffffffffffffffffff1673ffffffffffffffffffffffffffffffffffffffff16815260200191505060006040518083038186803b1580156104a257600080fd5b505afa1580156104b6573d6000803e3d6000fd5b505050506040513d6000823e3d601f19601f8201168201806040525060208110156104e057600080fd5b8101908080516401000000008111156104f857600080fd5b8281019050602081018481111561050e57600080fd5b815185600182028301116401000000008211171561052b57600080fd5b50509291905050509050919050565b60036020528060005260406000206000915054906101000a900460ff1681565b60008054600181600116156101000203166002900480601f0160208091040260200160405190810160405280929190818152602001828054600181600116156101000203166002900480156105f05780601f106105c5576101008083540402835291602001916105f0565b820191906000526020600020905b8154815290600101906020018083116105d357829003601f168201915b505050505081565b600660009054906101000a900460ff1681565b60046020528060005260406000206000915054906101000a900460ff1681565b606061063633610401565b905060048151116106af576040517f08c379a00000000000000000000000000000000000000000000000000000000081526004018080602001828103825260148152602001807f4e6f74205375627363726962656420566f74657200000000000000000000000081525060200191505060405180910390fd5b60008260ff161180156106d75750600160009054906101000a900460ff1660ff168260ff1611155b610749576040517f08c379a000000000000000000000000000000000000000000000000000000000815260040180806020018281038252600e8152602001807f496e76616c69642043686f69636500000000000000000000000000000000000081525060200191505060405180910390fd5b6000600460003373ffffffffffffffffffffffffffffffffffffffff1673ffffffffffffffffffffffffffffffffffffffff16815260200190815260200160002060009054906101000a900460ff1660ff161461080e576040517f08c379a000000000000000000000000000000000000000000000000000000000815260040180806020018281038252600d8152602001807f416c726561647920566f7465640000000000000000000000000000000000000081525060200191505060405180910390fd5b81600460003373ffffffffffffffffffffffffffffffffffffffff1673ffffffffffffffffffffffffffffffffffffffff16815260200190815260200160002060006101000a81548160ff021916908360ff160217905550600360008360ff1660ff168152602001908152602001600020600081819054906101000a900460ff168092919060010191906101000a81548160ff021916908360ff1602179055505060053390806001815401808255809150509060018203906000526020600020016000909192909190916101000a81548173ffffffffffffffffffffffffffffffffffffffff021916908373ffffffffffffffffffffffffffffffffffffffff160217905550506001600660008282829054906101000a900460ff160192506101000a81548160ff021916908360ff1602179055507fa94c5698cb9f28f048c61ba4817202e4a8d8e9d927b585d6be34727933f2ffa28233604051808360ff1660ff1681526020018273ffffffffffffffffffffffffffffffffffffffff1673ffffffffffffffffffffffffffffffffffffffff1681526020019250505060405180910390a15050565b6001809054906101000a900473ffffffffffffffffffffffffffffffffffffffff168156fea165627a7a7230582041ca600790740bc9d485c16ec7204186134113dd08c14ab43121efe0da08465b0029",
  "source": "pragma solidity ^0.5.0;\ncontract publicDB{\n    function getDetails(address addr) public view returns(string memory){}\n}\ncontract authenticatedPoll {\n    string public regex;\n    uint8 public options;\n    address public dbAddr;\n    publicDB db;\n    mapping(uint8=>uint8) public result;\n    mapping(address=>uint8) public voted;\n    address[] public votersVoted;\n    uint8 public totalVoters;\n    constructor(string memory _regex,uint8 _options,address database) public {\n        regex = _regex;\n        options = _options;\n        dbAddr = database;\n        db = publicDB(dbAddr);\n    }\n    event addVote(uint8 _choice,address sender);\n    function vote(uint8 _choice) public{\n        string memory name = getData(msg.sender);\n        require(bytes(name).length > 4,\"Not Subscribed Voter\");\n        require(_choice > 0 && _choice <= options,\"Invalid Choice\");\n        require(voted[msg.sender] == 0,\"Already Voted\");\n        voted[msg.sender] = _choice;\n        result[_choice]++;\n        votersVoted.push(msg.sender);\n        totalVoters += 1;\n        emit addVote(_choice,msg.sender);\n    }\n    function getData(address addr) public view returns(string memory){\n        return db.getDetails(addr);\n    }\n}",
  "sourcePath": "/home/venkatesh/Desktop/Work/WeVote/src/contracts/authenticatedPoll.sol",
  "compiler": {
    "name": "solc",
    "version": "0.5.8+commit.23d335f2.Emscripten.clang"
  },
  "schemaVersion": "3.0.11",
  "updatedAt": "2019-08-14T20:49:58.420Z",
  "devdoc": {
    "methods": {}
  },
  "userdoc": {
    "methods": {}
  }
}