{
  "contractName": "authenticatedPoll",
  "abi": [
    {
      "constant": true,
      "inputs": [],
      "name": "options",
      "outputs": [
        {
          "name": "",
          "type": "uint8"
        }
      ],
      "payable": false,
      "stateMutability": "view",
      "type": "function"
    },
    {
      "constant": true,
      "inputs": [
        {
          "name": "",
          "type": "uint8"
        }
      ],
      "name": "result",
      "outputs": [
        {
          "name": "",
          "type": "uint8"
        }
      ],
      "payable": false,
      "stateMutability": "view",
      "type": "function"
    },
    {
      "constant": true,
      "inputs": [],
      "name": "regex",
      "outputs": [
        {
          "name": "",
          "type": "string"
        }
      ],
      "payable": false,
      "stateMutability": "view",
      "type": "function"
    },
    {
      "constant": true,
      "inputs": [
        {
          "name": "",
          "type": "address"
        }
      ],
      "name": "voted",
      "outputs": [
        {
          "name": "",
          "type": "uint8"
        }
      ],
      "payable": false,
      "stateMutability": "view",
      "type": "function"
    },
    {
      "inputs": [
        {
          "name": "_regex",
          "type": "string"
        },
        {
          "name": "_options",
          "type": "uint8"
        },
        {
          "name": "database",
          "type": "address"
        }
      ],
      "payable": false,
      "stateMutability": "nonpayable",
      "type": "constructor"
    },
    {
      "anonymous": false,
      "inputs": [
        {
          "indexed": false,
          "name": "_choice",
          "type": "uint8"
        },
        {
          "indexed": false,
          "name": "name",
          "type": "string"
        }
      ],
      "name": "addVote",
      "type": "event"
    },
    {
      "constant": false,
      "inputs": [
        {
          "name": "_choice",
          "type": "uint8"
        }
      ],
      "name": "vote",
      "outputs": [],
      "payable": false,
      "stateMutability": "nonpayable",
      "type": "function"
    },
    {
      "constant": true,
      "inputs": [
        {
          "name": "addr",
          "type": "address"
        }
      ],
      "name": "getData",
      "outputs": [
        {
          "name": "",
          "type": "string"
        }
      ],
      "payable": false,
      "stateMutability": "view",
      "type": "function"
    },
    {
      "constant": false,
      "inputs": [
        {
          "name": "addr",
          "type": "address"
        }
      ],
      "name": "changeDB",
      "outputs": [],
      "payable": false,
      "stateMutability": "nonpayable",
      "type": "function"
    }
  ],
  "bytecode": "0x608060405234801561001057600080fd5b50604051610b5e380380610b5e8339810180604052606081101561003357600080fd5b81019080805164010000000081111561004b57600080fd5b8281019050602081018481111561006157600080fd5b815185600182028301116401000000008211171561007e57600080fd5b5050929190602001805190602001909291908051906020019092919050505082600090805190602001906100b3929190610179565b5081600160006101000a81548160ff021916908360ff160217905550806001806101000a81548173ffffffffffffffffffffffffffffffffffffffff021916908373ffffffffffffffffffffffffffffffffffffffff1602179055506001809054906101000a900473ffffffffffffffffffffffffffffffffffffffff16600260006101000a81548173ffffffffffffffffffffffffffffffffffffffff021916908373ffffffffffffffffffffffffffffffffffffffff16021790555050505061021e565b828054600181600116156101000203166002900490600052602060002090601f016020900481019282601f106101ba57805160ff19168380011785556101e8565b828001600101855582156101e8579182015b828111156101e75782518255916020019190600101906101cc565b5b5090506101f591906101f9565b5090565b61021b91905b808211156102175760008160009055506001016101ff565b5090565b90565b6109318061022d6000396000f3fe608060405234801561001057600080fd5b506004361061007d5760003560e01c806342f324fd1161005b57806342f324fd146101a757806355e79d29146101f2578063aec2ccae14610275578063b3f98adc146102d35761007d565b80631069143a146100825780633112a3a1146100a657806338266b22146100ea575b600080fd5b61008a610304565b604051808260ff1660ff16815260200191505060405180910390f35b6100e8600480360360208110156100bc57600080fd5b81019080803573ffffffffffffffffffffffffffffffffffffffff169060200190929190505050610317565b005b61012c6004803603602081101561010057600080fd5b81019080803573ffffffffffffffffffffffffffffffffffffffff1690602001909291905050506103bc565b6040518080602001828103825283818151815260200191508051906020019080838360005b8381101561016c578082015181840152602081019050610151565b50505050905090810190601f1680156101995780820380516001836020036101000a031916815260200191505b509250505060405180910390f35b6101d6600480360360208110156101bd57600080fd5b81019080803560ff1690602001909291905050506104f5565b604051808260ff1660ff16815260200191505060405180910390f35b6101fa610515565b6040518080602001828103825283818151815260200191508051906020019080838360005b8381101561023a57808201518184015260208101905061021f565b50505050905090810190601f1680156102675780820380516001836020036101000a031916815260200191505b509250505060405180910390f35b6102b76004803603602081101561028b57600080fd5b81019080803573ffffffffffffffffffffffffffffffffffffffff1690602001909291905050506105b3565b604051808260ff1660ff16815260200191505060405180910390f35b610302600480360360208110156102e957600080fd5b81019080803560ff1690602001909291905050506105d3565b005b600160009054906101000a900460ff1681565b806001806101000a81548173ffffffffffffffffffffffffffffffffffffffff021916908373ffffffffffffffffffffffffffffffffffffffff1602179055506001809054906101000a900473ffffffffffffffffffffffffffffffffffffffff16600260006101000a81548173ffffffffffffffffffffffffffffffffffffffff021916908373ffffffffffffffffffffffffffffffffffffffff16021790555050565b6060600260009054906101000a900473ffffffffffffffffffffffffffffffffffffffff1673ffffffffffffffffffffffffffffffffffffffff166330289c61836040518263ffffffff1660e01b8152600401808273ffffffffffffffffffffffffffffffffffffffff1673ffffffffffffffffffffffffffffffffffffffff16815260200191505060006040518083038186803b15801561045d57600080fd5b505afa158015610471573d6000803e3d6000fd5b505050506040513d6000823e3d601f19601f82011682018060405250602081101561049b57600080fd5b8101908080516401000000008111156104b357600080fd5b828101905060208101848111156104c957600080fd5b81518560018202830111640100000000821117156104e657600080fd5b50509291905050509050919050565b60036020528060005260406000206000915054906101000a900460ff1681565b60008054600181600116156101000203166002900480601f0160208091040260200160405190810160405280929190818152602001828054600181600116156101000203166002900480156105ab5780601f10610580576101008083540402835291602001916105ab565b820191906000526020600020905b81548152906001019060200180831161058e57829003601f168201915b505050505081565b60046020528060005260406000206000915054906101000a900460ff1681565b60606105de336103bc565b90506004815111610657576040517f08c379a00000000000000000000000000000000000000000000000000000000081526004018080602001828103825260148152602001807f4e6f74205375627363726962656420566f74657200000000000000000000000081525060200191505060405180910390fd5b60008260ff1611801561067f5750600160009054906101000a900460ff1660ff168260ff1611155b6106f1576040517f08c379a000000000000000000000000000000000000000000000000000000000815260040180806020018281038252600e8152602001807f496e76616c69642043686f69636500000000000000000000000000000000000081525060200191505060405180910390fd5b6000600460003373ffffffffffffffffffffffffffffffffffffffff1673ffffffffffffffffffffffffffffffffffffffff16815260200190815260200160002060009054906101000a900460ff1660ff16146107b6576040517f08c379a000000000000000000000000000000000000000000000000000000000815260040180806020018281038252600d8152602001807f416c726561647920566f7465640000000000000000000000000000000000000081525060200191505060405180910390fd5b81600460003373ffffffffffffffffffffffffffffffffffffffff1673ffffffffffffffffffffffffffffffffffffffff16815260200190815260200160002060006101000a81548160ff021916908360ff160217905550600360008360ff1660ff168152602001908152602001600020600081819054906101000a900460ff168092919060010191906101000a81548160ff021916908360ff160217905550507fdcda0dfdc996760244722d79190045c2c68652dfce8337115fb207d66c9cc5218282604051808360ff1660ff16815260200180602001828103825283818151815260200191508051906020019080838360005b838110156108c65780820151818401526020810190506108ab565b50505050905090810190601f1680156108f35780820380516001836020036101000a031916815260200191505b50935050505060405180910390a1505056fea165627a7a72305820e3077be4c7ff29e64bc71f7d2d81e3e2bdc6e71e3babbeb267d97fe63d35e93c0029",
  "source": "pragma solidity ^0.5.0;\ncontract publicDB{\n    function getDetails(address addr) public view returns(string memory){}\n}\ncontract authenticatedPoll {\n    string public regex;\n    uint8 public options;\n    address dbAddr;\n    publicDB db;\n    mapping(uint8=>uint8) public result;\n    mapping(address=>uint8) public voted;\n    constructor(string memory _regex,uint8 _options,address database) public {\n        regex = _regex;\n        options = _options;\n        dbAddr = database;\n        db = publicDB(dbAddr);\n    }\n    event addVote(uint8 _choice,string name);\n    function vote(uint8 _choice) public{\n        string memory name = getData(msg.sender);\n        require(bytes(name).length > 4,\"Not Subscribed Voter\");\n        require(_choice > 0 && _choice <= options,\"Invalid Choice\");\n        require(voted[msg.sender] == 0,\"Already Voted\");\n        voted[msg.sender] = _choice;\n        result[_choice]++;\n        emit addVote(_choice,name);\n    }\n    function getData(address addr) public view returns(string memory){\n        return db.getDetails(addr);\n    }\n    function changeDB(address addr) public{\n        dbAddr = addr;\n        db = publicDB(dbAddr);\n    }\n}",
  "sourcePath": "/home/venkatesh/Desktop/Work/WeVote/contracts/authenticatedPoll.sol",
  "compiler": {
    "name": "solc",
    "version": "0.5.8+commit.23d335f2.Emscripten.clang"
  },
  "schemaVersion": "3.0.11",
  "updatedAt": "2019-08-13T06:34:33.713Z",
  "devdoc": {
    "methods": {}
  },
  "userdoc": {
    "methods": {}
  }
}