{
  "contractName": "publicPoll",
  "abi": [
    {
      "constant": true,
      "inputs": [],
      "name": "options",
      "outputs": [
        {
          "name": "",
          "type": "uint8"
        }
      ],
      "payable": false,
      "stateMutability": "view",
      "type": "function"
    },
    {
      "constant": true,
      "inputs": [
        {
          "name": "",
          "type": "uint8"
        }
      ],
      "name": "result",
      "outputs": [
        {
          "name": "",
          "type": "uint8"
        }
      ],
      "payable": false,
      "stateMutability": "view",
      "type": "function"
    },
    {
      "constant": true,
      "inputs": [],
      "name": "regex",
      "outputs": [
        {
          "name": "",
          "type": "string"
        }
      ],
      "payable": false,
      "stateMutability": "view",
      "type": "function"
    },
    {
      "constant": true,
      "inputs": [
        {
          "name": "",
          "type": "address"
        }
      ],
      "name": "voted",
      "outputs": [
        {
          "name": "",
          "type": "uint8"
        }
      ],
      "payable": false,
      "stateMutability": "view",
      "type": "function"
    },
    {
      "inputs": [
        {
          "name": "_regex",
          "type": "string"
        },
        {
          "name": "_options",
          "type": "uint8"
        }
      ],
      "payable": false,
      "stateMutability": "nonpayable",
      "type": "constructor"
    },
    {
      "anonymous": false,
      "inputs": [
        {
          "indexed": false,
          "name": "_choice",
          "type": "uint8"
        }
      ],
      "name": "addVote",
      "type": "event"
    },
    {
      "constant": false,
      "inputs": [
        {
          "name": "_choice",
          "type": "uint8"
        }
      ],
      "name": "vote",
      "outputs": [],
      "payable": false,
      "stateMutability": "nonpayable",
      "type": "function"
    }
  ],
  "bytecode": "0x608060405234801561001057600080fd5b506040516106ba3803806106ba8339810180604052604081101561003357600080fd5b81019080805164010000000081111561004b57600080fd5b8281019050602081018481111561006157600080fd5b815185600182028301116401000000008211171561007e57600080fd5b50509291906020018051906020019092919050505081600090805190602001906100a99291906100cc565b5080600160006101000a81548160ff021916908360ff1602179055505050610171565b828054600181600116156101000203166002900490600052602060002090601f016020900481019282601f1061010d57805160ff191683800117855561013b565b8280016001018555821561013b579182015b8281111561013a57825182559160200191906001019061011f565b5b509050610148919061014c565b5090565b61016e91905b8082111561016a576000816000905550600101610152565b5090565b90565b61053a806101806000396000f3fe608060405234801561001057600080fd5b50600436106100575760003560e01c80631069143a1461005c57806342f324fd1461008057806355e79d29146100cb578063aec2ccae1461014e578063b3f98adc146101ac575b600080fd5b6100646101dd565b604051808260ff1660ff16815260200191505060405180910390f35b6100af6004803603602081101561009657600080fd5b81019080803560ff1690602001909291905050506101f0565b604051808260ff1660ff16815260200191505060405180910390f35b6100d3610210565b6040518080602001828103825283818151815260200191508051906020019080838360005b838110156101135780820151818401526020810190506100f8565b50505050905090810190601f1680156101405780820380516001836020036101000a031916815260200191505b509250505060405180910390f35b6101906004803603602081101561016457600080fd5b81019080803573ffffffffffffffffffffffffffffffffffffffff1690602001909291905050506102ae565b604051808260ff1660ff16815260200191505060405180910390f35b6101db600480360360208110156101c257600080fd5b81019080803560ff1690602001909291905050506102ce565b005b600160009054906101000a900460ff1681565b60026020528060005260406000206000915054906101000a900460ff1681565b60008054600181600116156101000203166002900480601f0160208091040260200160405190810160405280929190818152602001828054600181600116156101000203166002900480156102a65780601f1061027b576101008083540402835291602001916102a6565b820191906000526020600020905b81548152906001019060200180831161028957829003601f168201915b505050505081565b60036020528060005260406000206000915054906101000a900460ff1681565b60008160ff161180156102f65750600160009054906101000a900460ff1660ff168160ff1611155b610368576040517f08c379a000000000000000000000000000000000000000000000000000000000815260040180806020018281038252600e8152602001807f496e76616c69642043686f69636500000000000000000000000000000000000081525060200191505060405180910390fd5b6000600360003373ffffffffffffffffffffffffffffffffffffffff1673ffffffffffffffffffffffffffffffffffffffff16815260200190815260200160002060009054906101000a900460ff1660ff161461042d576040517f08c379a000000000000000000000000000000000000000000000000000000000815260040180806020018281038252600d8152602001807f416c726561647920566f7465640000000000000000000000000000000000000081525060200191505060405180910390fd5b80600360003373ffffffffffffffffffffffffffffffffffffffff1673ffffffffffffffffffffffffffffffffffffffff16815260200190815260200160002060006101000a81548160ff021916908360ff160217905550600260008260ff1660ff168152602001908152602001600020600081819054906101000a900460ff168092919060010191906101000a81548160ff021916908360ff160217905550507f5d814eab86f2953fbf14b2b64a1ad7d6a2083377484341211f50b96c07d8221081604051808260ff1660ff16815260200191505060405180910390a15056fea165627a7a72305820074d3dc635a018371338875c823bfdacd527e3f311aa0be70c6e5739c4be60a70029",
  "source": "pragma solidity ^0.5.0;\n\ncontract publicPoll {\n    string public regex;\n    uint8 public options;\n    mapping(uint8=>uint8) public result;\n    mapping(address=>uint8) public voted;\n    constructor(string memory _regex,uint8 _options) public {\n        regex = _regex;\n        options = _options;\n    }\n    event addVote(uint8 _choice);\n    function vote(uint8 _choice) public{\n        require(_choice > 0 && _choice <= options,\"Invalid Choice\");\n        require(voted[msg.sender] == 0,\"Already Voted\");\n        voted[msg.sender] = _choice;\n        result[_choice]++;\n        emit addVote(_choice);\n    }\n}",
  "sourcePath": "/home/venkatesh/Desktop/Work/WeVote/contracts/publicPoll.sol",
  "compiler": {
    "name": "solc",
    "version": "0.5.8+commit.23d335f2.Emscripten.clang"
  },
  "schemaVersion": "3.0.11",
  "updatedAt": "2019-08-13T06:34:33.063Z",
  "devdoc": {
    "methods": {}
  },
  "userdoc": {
    "methods": {}
  }
}