{
  "contractName": "publicPoll",
  "abi": [
    {
      "constant": true,
      "inputs": [],
      "name": "options",
      "outputs": [
        {
          "name": "",
          "type": "uint8"
        }
      ],
      "payable": false,
      "stateMutability": "view",
      "type": "function"
    },
    {
      "constant": true,
      "inputs": [
        {
          "name": "",
          "type": "uint256"
        }
      ],
      "name": "votersVoted",
      "outputs": [
        {
          "name": "",
          "type": "address"
        }
      ],
      "payable": false,
      "stateMutability": "view",
      "type": "function"
    },
    {
      "constant": true,
      "inputs": [
        {
          "name": "",
          "type": "uint8"
        }
      ],
      "name": "result",
      "outputs": [
        {
          "name": "",
          "type": "uint8"
        }
      ],
      "payable": false,
      "stateMutability": "view",
      "type": "function"
    },
    {
      "constant": true,
      "inputs": [],
      "name": "regex",
      "outputs": [
        {
          "name": "",
          "type": "string"
        }
      ],
      "payable": false,
      "stateMutability": "view",
      "type": "function"
    },
    {
      "constant": true,
      "inputs": [],
      "name": "totalVoters",
      "outputs": [
        {
          "name": "",
          "type": "uint8"
        }
      ],
      "payable": false,
      "stateMutability": "view",
      "type": "function"
    },
    {
      "constant": true,
      "inputs": [
        {
          "name": "",
          "type": "address"
        }
      ],
      "name": "voted",
      "outputs": [
        {
          "name": "",
          "type": "uint8"
        }
      ],
      "payable": false,
      "stateMutability": "view",
      "type": "function"
    },
    {
      "inputs": [
        {
          "name": "_regex",
          "type": "string"
        },
        {
          "name": "_options",
          "type": "uint8"
        }
      ],
      "payable": false,
      "stateMutability": "nonpayable",
      "type": "constructor"
    },
    {
      "anonymous": false,
      "inputs": [
        {
          "indexed": false,
          "name": "_choice",
          "type": "uint8"
        },
        {
          "indexed": false,
          "name": "sender",
          "type": "address"
        }
      ],
      "name": "addVote",
      "type": "event"
    },
    {
      "constant": false,
      "inputs": [
        {
          "name": "_choice",
          "type": "uint8"
        }
      ],
      "name": "vote",
      "outputs": [],
      "payable": false,
      "stateMutability": "nonpayable",
      "type": "function"
    }
  ],
  "bytecode": "0x608060405234801561001057600080fd5b506040516108a53803806108a58339810180604052604081101561003357600080fd5b81019080805164010000000081111561004b57600080fd5b8281019050602081018481111561006157600080fd5b815185600182028301116401000000008211171561007e57600080fd5b50509291906020018051906020019092919050505081600090805190602001906100a99291906100e8565b5080600160006101000a81548160ff021916908360ff1602179055506000600560006101000a81548160ff021916908360ff160217905550505061018d565b828054600181600116156101000203166002900490600052602060002090601f016020900481019282601f1061012957805160ff1916838001178555610157565b82800160010185558215610157579182015b8281111561015657825182559160200191906001019061013b565b5b5090506101649190610168565b5090565b61018a91905b8082111561018657600081600090555060010161016e565b5090565b90565b6107098061019c6000396000f3fe608060405234801561001057600080fd5b506004361061007d5760003560e01c806355e79d291161005b57806355e79d291461015f5780635f5300ff146101e2578063aec2ccae14610206578063b3f98adc146102645761007d565b80631069143a14610082578063286b8f48146100a657806342f324fd14610114575b600080fd5b61008a610295565b604051808260ff1660ff16815260200191505060405180910390f35b6100d2600480360360208110156100bc57600080fd5b81019080803590602001909291905050506102a8565b604051808273ffffffffffffffffffffffffffffffffffffffff1673ffffffffffffffffffffffffffffffffffffffff16815260200191505060405180910390f35b6101436004803603602081101561012a57600080fd5b81019080803560ff1690602001909291905050506102e4565b604051808260ff1660ff16815260200191505060405180910390f35b610167610304565b6040518080602001828103825283818151815260200191508051906020019080838360005b838110156101a757808201518184015260208101905061018c565b50505050905090810190601f1680156101d45780820380516001836020036101000a031916815260200191505b509250505060405180910390f35b6101ea6103a2565b604051808260ff1660ff16815260200191505060405180910390f35b6102486004803603602081101561021c57600080fd5b81019080803573ffffffffffffffffffffffffffffffffffffffff1690602001909291905050506103b5565b604051808260ff1660ff16815260200191505060405180910390f35b6102936004803603602081101561027a57600080fd5b81019080803560ff1690602001909291905050506103d5565b005b600160009054906101000a900460ff1681565b600481815481106102b557fe5b906000526020600020016000915054906101000a900473ffffffffffffffffffffffffffffffffffffffff1681565b60026020528060005260406000206000915054906101000a900460ff1681565b60008054600181600116156101000203166002900480601f01602080910402602001604051908101604052809291908181526020018280546001816001161561010002031660029004801561039a5780601f1061036f5761010080835404028352916020019161039a565b820191906000526020600020905b81548152906001019060200180831161037d57829003601f168201915b505050505081565b600560009054906101000a900460ff1681565b60036020528060005260406000206000915054906101000a900460ff1681565b60008160ff161180156103fd5750600160009054906101000a900460ff1660ff168160ff1611155b61046f576040517f08c379a000000000000000000000000000000000000000000000000000000000815260040180806020018281038252600e8152602001807f496e76616c69642043686f69636500000000000000000000000000000000000081525060200191505060405180910390fd5b6000600360003373ffffffffffffffffffffffffffffffffffffffff1673ffffffffffffffffffffffffffffffffffffffff16815260200190815260200160002060009054906101000a900460ff1660ff1614610534576040517f08c379a000000000000000000000000000000000000000000000000000000000815260040180806020018281038252600d8152602001807f416c726561647920566f7465640000000000000000000000000000000000000081525060200191505060405180910390fd5b80600360003373ffffffffffffffffffffffffffffffffffffffff1673ffffffffffffffffffffffffffffffffffffffff16815260200190815260200160002060006101000a81548160ff021916908360ff160217905550600260008260ff1660ff168152602001908152602001600020600081819054906101000a900460ff168092919060010191906101000a81548160ff021916908360ff1602179055505060043390806001815401808255809150509060018203906000526020600020016000909192909190916101000a81548173ffffffffffffffffffffffffffffffffffffffff021916908373ffffffffffffffffffffffffffffffffffffffff160217905550506001600560008282829054906101000a900460ff160192506101000a81548160ff021916908360ff1602179055507fa94c5698cb9f28f048c61ba4817202e4a8d8e9d927b585d6be34727933f2ffa28133604051808360ff1660ff1681526020018273ffffffffffffffffffffffffffffffffffffffff1673ffffffffffffffffffffffffffffffffffffffff1681526020019250505060405180910390a15056fea165627a7a723058202ce532a6117876d625e5c7d1e6fe328ed409b7d1fc6807075bd62dc999f7c9860029",
  "source": "pragma solidity ^0.5.0;\n\ncontract publicPoll {\n    string public regex;\n    uint8 public options;\n    mapping(uint8=>uint8) public result;\n    mapping(address=>uint8) public voted;\n    address[] public votersVoted;\n    uint8 public totalVoters;\n    constructor(string memory _regex,uint8 _options) public {\n        regex = _regex;\n        options = _options;\n        totalVoters = 0;\n    }\n    event addVote(uint8 _choice,address sender);\n    function vote(uint8 _choice) public{\n        require(_choice > 0 && _choice <= options,\"Invalid Choice\");\n        require(voted[msg.sender] == 0,\"Already Voted\");\n        voted[msg.sender] = _choice;\n        result[_choice]++;\n        votersVoted.push(msg.sender);\n        totalVoters += 1;\n        emit addVote(_choice,msg.sender);\n    }\n}",
  "sourcePath": "/home/venkatesh/Desktop/Work/WeVote/src/contracts/publicPoll.sol",
  "compiler": {
    "name": "solc",
    "version": "0.5.8+commit.23d335f2.Emscripten.clang"
  },
  "schemaVersion": "3.0.11",
  "updatedAt": "2019-08-14T20:49:57.121Z",
  "devdoc": {
    "methods": {}
  },
  "userdoc": {
    "methods": {}
  }
}